{
  "contractName": "Exchange",
  "abi": [
    {
      "inputs": [],
      "name": "MINIMUM_LIQUIDITY",
      "outputs": [
        {
          "internalType": "uint256",
          "name": "",
          "type": "uint256"
        }
      ],
      "stateMutability": "view",
      "type": "function",
      "constant": true
    },
    {
      "inputs": [],
      "name": "initialized",
      "outputs": [
        {
          "internalType": "uint256",
          "name": "",
          "type": "uint256"
        }
      ],
      "stateMutability": "view",
      "type": "function",
      "constant": true
    },
    {
      "inputs": [],
      "name": "reserve0",
      "outputs": [
        {
          "internalType": "uint256",
          "name": "",
          "type": "uint256"
        }
      ],
      "stateMutability": "view",
      "type": "function",
      "constant": true
    },
    {
      "inputs": [],
      "name": "reserve1",
      "outputs": [
        {
          "internalType": "uint256",
          "name": "",
          "type": "uint256"
        }
      ],
      "stateMutability": "view",
      "type": "function",
      "constant": true
    },
    {
      "inputs": [],
      "name": "token0",
      "outputs": [
        {
          "internalType": "address",
          "name": "",
          "type": "address"
        }
      ],
      "stateMutability": "view",
      "type": "function",
      "constant": true
    },
    {
      "inputs": [],
      "name": "token1",
      "outputs": [
        {
          "internalType": "address",
          "name": "",
          "type": "address"
        }
      ],
      "stateMutability": "view",
      "type": "function",
      "constant": true
    },
    {
      "inputs": [],
      "name": "totalSupply",
      "outputs": [
        {
          "internalType": "uint256",
          "name": "",
          "type": "uint256"
        }
      ],
      "stateMutability": "view",
      "type": "function",
      "constant": true
    },
    {
      "inputs": [
        {
          "internalType": "address",
          "name": "_token0",
          "type": "address"
        },
        {
          "internalType": "address",
          "name": "_token1",
          "type": "address"
        }
      ],
      "name": "setPool",
      "outputs": [],
      "stateMutability": "nonpayable",
      "type": "function"
    },
    {
      "inputs": [],
      "name": "getReserves",
      "outputs": [
        {
          "internalType": "uint256",
          "name": "_reserve0",
          "type": "uint256"
        },
        {
          "internalType": "uint256",
          "name": "_reserve1",
          "type": "uint256"
        }
      ],
      "stateMutability": "view",
      "type": "function",
      "constant": true
    },
    {
      "inputs": [
        {
          "internalType": "address",
          "name": "a",
          "type": "address"
        }
      ],
      "name": "getBalance",
      "outputs": [
        {
          "internalType": "uint256",
          "name": "_liqudity",
          "type": "uint256"
        }
      ],
      "stateMutability": "view",
      "type": "function",
      "constant": true
    },
    {
      "inputs": [
        {
          "internalType": "uint256",
          "name": "_amount0",
          "type": "uint256"
        },
        {
          "internalType": "uint256",
          "name": "_amount1",
          "type": "uint256"
        }
      ],
      "name": "addLiquidity",
      "outputs": [],
      "stateMutability": "nonpayable",
      "type": "function"
    },
    {
      "inputs": [],
      "name": "removeLiquidity",
      "outputs": [],
      "stateMutability": "nonpayable",
      "type": "function"
    },
    {
      "inputs": [
        {
          "internalType": "uint256",
          "name": "amountA",
          "type": "uint256"
        }
      ],
      "name": "swapAtoB",
      "outputs": [],
      "stateMutability": "nonpayable",
      "type": "function"
    },
    {
      "inputs": [
        {
          "internalType": "uint256",
          "name": "amountB",
          "type": "uint256"
        }
      ],
      "name": "swapBtoA",
      "outputs": [],
      "stateMutability": "nonpayable",
      "type": "function"
    }
  ],
  "bytecode": "0x6080604052600060065534801561001557600080fd5b50610fa5806100256000396000f3fe608060405234801561001057600080fd5b50600436106100ea5760003560e01c806367b9a2861161008c578063d21220a711610066578063d21220a714610284578063da0d6735146102b8578063e0441df0146102e6578063f8b2cb4f14610314576100ea565b806367b9a286146102245780639cd441da1461022e578063ba9a7a5614610266576100ea565b806318160ddd116100c857806318160ddd14610166578063443cb4bc146101845780634e847fc7146101a25780635a76f25e14610206576100ea565b80630902f1ac146100ef5780630dfe168114610114578063158ef93e14610148575b600080fd5b6100f761036c565b604051808381526020018281526020019250505060405180910390f35b61011c61037d565b604051808273ffffffffffffffffffffffffffffffffffffffff16815260200191505060405180910390f35b6101506103a1565b6040518082815260200191505060405180910390f35b61016e6103a7565b6040518082815260200191505060405180910390f35b61018c6103ad565b6040518082815260200191505060405180910390f35b610204600480360360408110156101b857600080fd5b81019080803573ffffffffffffffffffffffffffffffffffffffff169060200190929190803573ffffffffffffffffffffffffffffffffffffffff1690602001909291905050506103b3565b005b61020e610467565b6040518082815260200191505060405180910390f35b61022c61046d565b005b6102646004803603604081101561024457600080fd5b810190808035906020019092919080359060200190929190505050610726565b005b61026e6109d8565b6040518082815260200191505060405180910390f35b61028c6109de565b604051808273ffffffffffffffffffffffffffffffffffffffff16815260200191505060405180910390f35b6102e4600480360360208110156102ce57600080fd5b8101908080359060200190929190505050610a04565b005b610312600480360360208110156102fc57600080fd5b8101908080359060200190929190505050610c04565b005b6103566004803603602081101561032a57600080fd5b81019080803573ffffffffffffffffffffffffffffffffffffffff169060200190929190505050610e04565b6040518082815260200191505060405180910390f35b600080600354915060045490509091565b60008054906101000a900473ffffffffffffffffffffffffffffffffffffffff1681565b60065481565b60055481565b60035481565b6000600654146103c257600080fd5b816000806101000a81548173ffffffffffffffffffffffffffffffffffffffff021916908373ffffffffffffffffffffffffffffffffffffffff16021790555080600160006101000a81548173ffffffffffffffffffffffffffffffffffffffff021916908373ffffffffffffffffffffffffffffffffffffffff16021790555060006003819055506000600481905550600060058190555060016006819055505050565b60045481565b60016006541461047c57600080fd5b6000600260003373ffffffffffffffffffffffffffffffffffffffff1673ffffffffffffffffffffffffffffffffffffffff16815260200190815260200160002054905060006005546104da60035484610e4d90919063ffffffff16565b816104e157fe5b04905060006005546104fe60045485610e4d90919063ffffffff16565b8161050557fe5b04905081600360008282540392505081905550806004600082825403925050819055508260056000828254039250508190555082600260003373ffffffffffffffffffffffffffffffffffffffff1673ffffffffffffffffffffffffffffffffffffffff1681526020019081526020016000206000828254039250508190555060008054906101000a900473ffffffffffffffffffffffffffffffffffffffff1673ffffffffffffffffffffffffffffffffffffffff1663a9059cbb33846040518363ffffffff1660e01b8152600401808373ffffffffffffffffffffffffffffffffffffffff16815260200182815260200192505050602060405180830381600087803b15801561061657600080fd5b505af115801561062a573d6000803e3d6000fd5b505050506040513d602081101561064057600080fd5b810190808051906020019092919050505050600160009054906101000a900473ffffffffffffffffffffffffffffffffffffffff1673ffffffffffffffffffffffffffffffffffffffff1663a9059cbb33836040518363ffffffff1660e01b8152600401808373ffffffffffffffffffffffffffffffffffffffff16815260200182815260200192505050602060405180830381600087803b1580156106e557600080fd5b505af11580156106f9573d6000803e3d6000fd5b505050506040513d602081101561070f57600080fd5b810190808051906020019092919050505050505050565b60016006541461073557600080fd5b60008060035414156107535761074c828402610ed3565b905061077e565b61077b60035460055485028161076557fe5b0460045460055485028161077557fe5b04610f35565b90505b80600260003373ffffffffffffffffffffffffffffffffffffffff1673ffffffffffffffffffffffffffffffffffffffff1681526020019081526020016000206000828254019250508190555080600560008282540192505081905550826003600082825401925050819055508160046000828254019250508190555060008054906101000a900473ffffffffffffffffffffffffffffffffffffffff1673ffffffffffffffffffffffffffffffffffffffff166323b872dd3330866040518463ffffffff1660e01b8152600401808473ffffffffffffffffffffffffffffffffffffffff1681526020018373ffffffffffffffffffffffffffffffffffffffff1681526020018281526020019350505050602060405180830381600087803b1580156108aa57600080fd5b505af11580156108be573d6000803e3d6000fd5b505050506040513d60208110156108d457600080fd5b810190808051906020019092919050505050600160009054906101000a900473ffffffffffffffffffffffffffffffffffffffff1673ffffffffffffffffffffffffffffffffffffffff166323b872dd3330856040518463ffffffff1660e01b8152600401808473ffffffffffffffffffffffffffffffffffffffff1681526020018373ffffffffffffffffffffffffffffffffffffffff1681526020018281526020019350505050602060405180830381600087803b15801561099757600080fd5b505af11580156109ab573d6000803e3d6000fd5b505050506040513d60208110156109c157600080fd5b810190808051906020019092919050505050505050565b6103e881565b600160009054906101000a900473ffffffffffffffffffffffffffffffffffffffff1681565b60008054906101000a900473ffffffffffffffffffffffffffffffffffffffff1673ffffffffffffffffffffffffffffffffffffffff166323b872dd3330846040518463ffffffff1660e01b8152600401808473ffffffffffffffffffffffffffffffffffffffff1681526020018373ffffffffffffffffffffffffffffffffffffffff1681526020018281526020019350505050602060405180830381600087803b158015610ab357600080fd5b505af1158015610ac7573d6000803e3d6000fd5b505050506040513d6020811015610add57600080fd5b8101908080519060200190929190505050506000600454600354029050600082600354018281610b0957fe5b046004540390508260036000828254019250508190555080600460008282540392505081905550600160009054906101000a900473ffffffffffffffffffffffffffffffffffffffff1673ffffffffffffffffffffffffffffffffffffffff1663a9059cbb33836040518363ffffffff1660e01b8152600401808373ffffffffffffffffffffffffffffffffffffffff16815260200182815260200192505050602060405180830381600087803b158015610bc357600080fd5b505af1158015610bd7573d6000803e3d6000fd5b505050506040513d6020811015610bed57600080fd5b810190808051906020019092919050505050505050565b600160009054906101000a900473ffffffffffffffffffffffffffffffffffffffff1673ffffffffffffffffffffffffffffffffffffffff166323b872dd3330846040518463ffffffff1660e01b8152600401808473ffffffffffffffffffffffffffffffffffffffff1681526020018373ffffffffffffffffffffffffffffffffffffffff1681526020018281526020019350505050602060405180830381600087803b158015610cb557600080fd5b505af1158015610cc9573d6000803e3d6000fd5b505050506040513d6020811015610cdf57600080fd5b8101908080519060200190929190505050506000600454600354029050600082600454018281610d0b57fe5b04600354039050806003600082825403925050819055508260046000828254019250508190555060008054906101000a900473ffffffffffffffffffffffffffffffffffffffff1673ffffffffffffffffffffffffffffffffffffffff1663a9059cbb33836040518363ffffffff1660e01b8152600401808373ffffffffffffffffffffffffffffffffffffffff16815260200182815260200192505050602060405180830381600087803b158015610dc357600080fd5b505af1158015610dd7573d6000803e3d6000fd5b505050506040513d6020811015610ded57600080fd5b810190808051906020019092919050505050505050565b6000600260008373ffffffffffffffffffffffffffffffffffffffff1673ffffffffffffffffffffffffffffffffffffffff168152602001908152602001600020549050919050565b600080831415610e605760009050610ecd565b6000828402905082848281610e7157fe5b0414610ec8576040517f08c379a0000000000000000000000000000000000000000000000000000000008152600401808060200182810382526021815260200180610f4f6021913960400191505060405180910390fd5b809150505b92915050565b60006003821115610f22578190506000600160028481610eef57fe5b040190505b81811015610f1c57809150600281828581610f0b57fe5b040181610f1457fe5b049050610ef4565b50610f30565b60008214610f2f57600190505b5b919050565b6000818310610f445781610f46565b825b90509291505056fe536166654d6174683a206d756c7469706c69636174696f6e206f766572666c6f77a2646970667358221220a409eaf2ad416d51f8cc19684fe37ac7c2d9a309b30b2b0f29501357dba7018264736f6c63430007000033",
  "immutableReferences": {},
  "source": "// SPDX-License-Identifier: MIT\npragma solidity >=0.7.0 <0.8.0;\nimport {SafeMath} from '@openzeppelin/contracts/math/SafeMath.sol';\nimport {IERC20} from '@openzeppelin/contracts/token/ERC20/IERC20.sol';\nimport './libraries/Math.sol';\n\n\ncontract Exchange {\n    using SafeMath for uint256;\n    address public token0;\n    address public token1;\n    mapping(address => uint256) balances;\n\n    uint256 public reserve0;\n    uint256 public reserve1;\n    uint256 public totalSupply;\n\n    uint public initialized = 0;\n    uint public constant MINIMUM_LIQUIDITY = 10**3;\n\n\n    function setPool(address _token0, address _token1) public {\n        require(initialized == 0);\n        token0 = _token0;\n        token1 = _token1;\n        reserve0 = 0;\n        reserve1 = 0;\n        totalSupply = 0;\n        initialized = 1;\n    }\n\n    function getReserves() public view returns (uint256 _reserve0, uint256 _reserve1) {\n        _reserve0 = reserve0;\n        _reserve1 = reserve1;\n    }\n\n    function getBalance(address a) public view returns (uint256 _liqudity) {\n        _liqudity = balances[a];\n    }\n\n    function addLiquidity(uint256 _amount0, uint256 _amount1) public{\n        require(initialized == 1);\n        uint256 liquidity;\n\n        if(reserve0 == 0) {\n            liquidity = Math.sqrt(_amount0 * _amount1);\n        }\n        else {\n            //uint256 inputRatio = _amount0/_amount1;\n            //uint256 reserveRatio = reserve0/_reserve1;\n            //require( inputRatio >> 3 == reserveRatio >> 3);\n            liquidity = Math.min(_amount0 * totalSupply / reserve0, _amount1 * totalSupply / reserve1);\n        }\n\n        balances[msg.sender] += liquidity; // the ratio must same, even we use amount 1 / _reserve1\n        totalSupply += liquidity;\n        reserve0 += _amount0;\n        reserve1 += _amount1;\n\n        IERC20(token0).transferFrom(msg.sender, address(this), _amount0);\n        IERC20(token1).transferFrom(msg.sender, address(this), _amount1);\n    }\n\n    function removeLiquidity() public{\n        require(initialized == 1);\n\n        uint256 liquidity = balances[msg.sender]; \n        uint256 balance0 = liquidity.mul(reserve0) / totalSupply;\n        uint256 balance1 = liquidity.mul(reserve1) / totalSupply;\n        reserve0 -= balance0;\n        reserve1 -= balance1;\n        totalSupply -= liquidity;\n        balances[msg.sender]-= liquidity; \n        IERC20(token0).transfer(msg.sender,  balance0);\n        IERC20(token1).transfer(msg.sender,  balance1);\n    }\n\n    function swapAtoB(uint256 amountA) public {\n        // Tranfer tokens from sender to this contract\n        IERC20(token0).transferFrom(msg.sender, address(this), amountA);\n\n        //Calculation\n        uint256 lastK = reserve0*reserve1;\n        uint256 amountB = reserve1 - lastK/(reserve0+amountA);\n        reserve0 += amountA;\n        reserve1 -= amountB;\n\n        // Transfer amount minus fees to sender\n        IERC20(token1).transfer(msg.sender, amountB);\n    }\n\n    function swapBtoA(uint256 amountB) public {\n        // Tranfer tokens from sender to this contract\n        IERC20(token1).transferFrom(msg.sender, address(this), amountB);\n\n        //Calculation\n        uint256 lastK = reserve0*reserve1;\n        uint256 amountA = reserve0 - lastK/(reserve1+amountB);\n        reserve0 -= amountA;\n        reserve1 += amountB;\n\n        // Transfer amount minus fees to sender\n        IERC20(token0).transfer(msg.sender, amountA);\n    }\n}",
  "sourcePath": "/home/robert/Work/mock_uniswap/contracts/Exchange.sol",
  "compiler": {
    "name": "solc",
    "version": "0.7.0+commit.9e61f92b.Emscripten.clang"
  },
  "schemaVersion": "3.4.1",
  "updatedAt": "2021-07-14T03:19:38.236Z",
  "networkType": "ethereum",
  "devdoc": {
    "kind": "dev",
    "methods": {},
    "version": 1
  },
  "userdoc": {
    "kind": "user",
    "methods": {},
    "version": 1
  }
}